{
  "_format": "hh-sol-artifact-1",
  "contractName": "ClawCoin",
  "sourceName": "contracts/ClawCoin.sol",
  "abi": [
    {
      "inputs": [],
      "stateMutability": "nonpayable",
      "type": "constructor"
    },
    {
      "inputs": [],
      "name": "InvalidShortString",
      "type": "error"
    },
    {
      "inputs": [
        {
          "internalType": "string",
          "name": "str",
          "type": "string"
        }
      ],
      "name": "StringTooLong",
      "type": "error"
    },
    {
      "anonymous": false,
      "inputs": [
        {
          "indexed": true,
          "internalType": "address",
          "name": "owner",
          "type": "address"
        },
        {
          "indexed": true,
          "internalType": "address",
          "name": "spender",
          "type": "address"
        },
        {
          "indexed": false,
          "internalType": "uint256",
          "name": "value",
          "type": "uint256"
        }
      ],
      "name": "Approval",
      "type": "event"
    },
    {
      "anonymous": false,
      "inputs": [],
      "name": "EIP712DomainChanged",
      "type": "event"
    },
    {
      "anonymous": false,
      "inputs": [
        {
          "indexed": true,
          "internalType": "address",
          "name": "ecosystemFund",
          "type": "address"
        },
        {
          "indexed": true,
          "internalType": "address",
          "name": "communityAirdrop",
          "type": "address"
        },
        {
          "indexed": true,
          "internalType": "address",
          "name": "liquidityPool",
          "type": "address"
        },
        {
          "indexed": false,
          "internalType": "address",
          "name": "privateInvestors",
          "type": "address"
        },
        {
          "indexed": false,
          "internalType": "address",
          "name": "openClawFund",
          "type": "address"
        },
        {
          "indexed": false,
          "internalType": "address",
          "name": "teamWallet",
          "type": "address"
        }
      ],
      "name": "Initialized",
      "type": "event"
    },
    {
      "anonymous": false,
      "inputs": [
        {
          "indexed": false,
          "internalType": "address",
          "name": "account",
          "type": "address"
        }
      ],
      "name": "Paused",
      "type": "event"
    },
    {
      "anonymous": false,
      "inputs": [
        {
          "indexed": true,
          "internalType": "bytes32",
          "name": "role",
          "type": "bytes32"
        },
        {
          "indexed": true,
          "internalType": "bytes32",
          "name": "previousAdminRole",
          "type": "bytes32"
        },
        {
          "indexed": true,
          "internalType": "bytes32",
          "name": "newAdminRole",
          "type": "bytes32"
        }
      ],
      "name": "RoleAdminChanged",
      "type": "event"
    },
    {
      "anonymous": false,
      "inputs": [
        {
          "indexed": true,
          "internalType": "bytes32",
          "name": "role",
          "type": "bytes32"
        },
        {
          "indexed": true,
          "internalType": "address",
          "name": "account",
          "type": "address"
        },
        {
          "indexed": true,
          "internalType": "address",
          "name": "sender",
          "type": "address"
        }
      ],
      "name": "RoleGranted",
      "type": "event"
    },
    {
      "anonymous": false,
      "inputs": [
        {
          "indexed": true,
          "internalType": "bytes32",
          "name": "role",
          "type": "bytes32"
        },
        {
          "indexed": true,
          "internalType": "address",
          "name": "account",
          "type": "address"
        },
        {
          "indexed": true,
          "internalType": "address",
          "name": "sender",
          "type": "address"
        }
      ],
      "name": "RoleRevoked",
      "type": "event"
    },
    {
      "anonymous": false,
      "inputs": [
        {
          "indexed": true,
          "internalType": "address",
          "name": "oldWallet",
          "type": "address"
        },
        {
          "indexed": true,
          "internalType": "address",
          "name": "newWallet",
          "type": "address"
        }
      ],
      "name": "TeamWalletUpdated",
      "type": "event"
    },
    {
      "anonymous": false,
      "inputs": [
        {
          "indexed": true,
          "internalType": "address",
          "name": "beneficiary",
          "type": "address"
        },
        {
          "indexed": false,
          "internalType": "uint256",
          "name": "amount",
          "type": "uint256"
        },
        {
          "indexed": false,
          "internalType": "uint256",
          "name": "startTime",
          "type": "uint256"
        },
        {
          "indexed": false,
          "internalType": "uint256",
          "name": "duration",
          "type": "uint256"
        }
      ],
      "name": "TokensLocked",
      "type": "event"
    },
    {
      "anonymous": false,
      "inputs": [
        {
          "indexed": true,
          "internalType": "address",
          "name": "beneficiary",
          "type": "address"
        },
        {
          "indexed": false,
          "internalType": "uint256",
          "name": "amount",
          "type": "uint256"
        }
      ],
      "name": "TokensUnlocked",
      "type": "event"
    },
    {
      "anonymous": false,
      "inputs": [
        {
          "indexed": true,
          "internalType": "address",
          "name": "from",
          "type": "address"
        },
        {
          "indexed": true,
          "internalType": "address",
          "name": "to",
          "type": "address"
        },
        {
          "indexed": false,
          "internalType": "uint256",
          "name": "value",
          "type": "uint256"
        }
      ],
      "name": "Transfer",
      "type": "event"
    },
    {
      "anonymous": false,
      "inputs": [
        {
          "indexed": false,
          "internalType": "address",
          "name": "account",
          "type": "address"
        }
      ],
      "name": "Unpaused",
      "type": "event"
    },
    {
      "inputs": [],
      "name": "BURNER_ROLE",
      "outputs": [
        {
          "internalType": "bytes32",
          "name": "",
          "type": "bytes32"
        }
      ],
      "stateMutability": "view",
      "type": "function"
    },
    {
      "inputs": [],
      "name": "DECIMALS",
      "outputs": [
        {
          "internalType": "uint8",
          "name": "",
          "type": "uint8"
        }
      ],
      "stateMutability": "view",
      "type": "function"
    },
    {
      "inputs": [],
      "name": "DEFAULT_ADMIN_ROLE",
      "outputs": [
        {
          "internalType": "bytes32",
          "name": "",
          "type": "bytes32"
        }
      ],
      "stateMutability": "view",
      "type": "function"
    },
    {
      "inputs": [],
      "name": "DOMAIN_SEPARATOR",
      "outputs": [
        {
          "internalType": "bytes32",
          "name": "",
          "type": "bytes32"
        }
      ],
      "stateMutability": "view",
      "type": "function"
    },
    {
      "inputs": [],
      "name": "MINTER_ROLE",
      "outputs": [
        {
          "internalType": "bytes32",
          "name": "",
          "type": "bytes32"
        }
      ],
      "stateMutability": "view",
      "type": "function"
    },
    {
      "inputs": [],
      "name": "OPERATOR_ROLE",
      "outputs": [
        {
          "internalType": "bytes32",
          "name": "",
          "type": "bytes32"
        }
      ],
      "stateMutability": "view",
      "type": "function"
    },
    {
      "inputs": [],
      "name": "TOTAL_SUPPLY",
      "outputs": [
        {
          "internalType": "uint256",
          "name": "",
          "type": "uint256"
        }
      ],
      "stateMutability": "view",
      "type": "function"
    },
    {
      "inputs": [
        {
          "internalType": "address",
          "name": "owner",
          "type": "address"
        },
        {
          "internalType": "address",
          "name": "spender",
          "type": "address"
        }
      ],
      "name": "allowance",
      "outputs": [
        {
          "internalType": "uint256",
          "name": "",
          "type": "uint256"
        }
      ],
      "stateMutability": "view",
      "type": "function"
    },
    {
      "inputs": [
        {
          "internalType": "address",
          "name": "spender",
          "type": "address"
        },
        {
          "internalType": "uint256",
          "name": "amount",
          "type": "uint256"
        }
      ],
      "name": "approve",
      "outputs": [
        {
          "internalType": "bool",
          "name": "",
          "type": "bool"
        }
      ],
      "stateMutability": "nonpayable",
      "type": "function"
    },
    {
      "inputs": [
        {
          "internalType": "address",
          "name": "account",
          "type": "address"
        }
      ],
      "name": "balanceOf",
      "outputs": [
        {
          "internalType": "uint256",
          "name": "",
          "type": "uint256"
        }
      ],
      "stateMutability": "view",
      "type": "function"
    },
    {
      "inputs": [
        {
          "internalType": "address",
          "name": "from",
          "type": "address"
        },
        {
          "internalType": "uint256",
          "name": "amount",
          "type": "uint256"
        }
      ],
      "name": "burn",
      "outputs": [],
      "stateMutability": "nonpayable",
      "type": "function"
    },
    {
      "inputs": [],
      "name": "communityAirdrop",
      "outputs": [
        {
          "internalType": "address",
          "name": "",
          "type": "address"
        }
      ],
      "stateMutability": "view",
      "type": "function"
    },
    {
      "inputs": [],
      "name": "decimals",
      "outputs": [
        {
          "internalType": "uint8",
          "name": "",
          "type": "uint8"
        }
      ],
      "stateMutability": "view",
      "type": "function"
    },
    {
      "inputs": [
        {
          "internalType": "address",
          "name": "spender",
          "type": "address"
        },
        {
          "internalType": "uint256",
          "name": "subtractedValue",
          "type": "uint256"
        }
      ],
      "name": "decreaseAllowance",
      "outputs": [
        {
          "internalType": "bool",
          "name": "",
          "type": "bool"
        }
      ],
      "stateMutability": "nonpayable",
      "type": "function"
    },
    {
      "inputs": [],
      "name": "ecosystemFund",
      "outputs": [
        {
          "internalType": "address",
          "name": "",
          "type": "address"
        }
      ],
      "stateMutability": "view",
      "type": "function"
    },
    {
      "inputs": [],
      "name": "eip712Domain",
      "outputs": [
        {
          "internalType": "bytes1",
          "name": "fields",
          "type": "bytes1"
        },
        {
          "internalType": "string",
          "name": "name",
          "type": "string"
        },
        {
          "internalType": "string",
          "name": "version",
          "type": "string"
        },
        {
          "internalType": "uint256",
          "name": "chainId",
          "type": "uint256"
        },
        {
          "internalType": "address",
          "name": "verifyingContract",
          "type": "address"
        },
        {
          "internalType": "bytes32",
          "name": "salt",
          "type": "bytes32"
        },
        {
          "internalType": "uint256[]",
          "name": "extensions",
          "type": "uint256[]"
        }
      ],
      "stateMutability": "view",
      "type": "function"
    },
    {
      "inputs": [],
      "name": "emergencyWithdraw",
      "outputs": [],
      "stateMutability": "nonpayable",
      "type": "function"
    },
    {
      "inputs": [
        {
          "internalType": "address",
          "name": "beneficiary",
          "type": "address"
        }
      ],
      "name": "getLockedAmount",
      "outputs": [
        {
          "internalType": "uint256",
          "name": "",
          "type": "uint256"
        }
      ],
      "stateMutability": "view",
      "type": "function"
    },
    {
      "inputs": [
        {
          "internalType": "bytes32",
          "name": "role",
          "type": "bytes32"
        }
      ],
      "name": "getRoleAdmin",
      "outputs": [
        {
          "internalType": "bytes32",
          "name": "",
          "type": "bytes32"
        }
      ],
      "stateMutability": "view",
      "type": "function"
    },
    {
      "inputs": [],
      "name": "getTokenInfo",
      "outputs": [
        {
          "internalType": "string",
          "name": "name_",
          "type": "string"
        },
        {
          "internalType": "string",
          "name": "symbol_",
          "type": "string"
        },
        {
          "internalType": "uint8",
          "name": "decimals_",
          "type": "uint8"
        },
        {
          "internalType": "uint256",
          "name": "totalSupply_",
          "type": "uint256"
        },
        {
          "internalType": "uint256",
          "name": "circulatingSupply_",
          "type": "uint256"
        }
      ],
      "stateMutability": "view",
      "type": "function"
    },
    {
      "inputs": [
        {
          "internalType": "bytes32",
          "name": "role",
          "type": "bytes32"
        },
        {
          "internalType": "address",
          "name": "account",
          "type": "address"
        }
      ],
      "name": "grantRole",
      "outputs": [],
      "stateMutability": "nonpayable",
      "type": "function"
    },
    {
      "inputs": [
        {
          "internalType": "bytes32",
          "name": "role",
          "type": "bytes32"
        },
        {
          "internalType": "address",
          "name": "account",
          "type": "address"
        }
      ],
      "name": "hasRole",
      "outputs": [
        {
          "internalType": "bool",
          "name": "",
          "type": "bool"
        }
      ],
      "stateMutability": "view",
      "type": "function"
    },
    {
      "inputs": [
        {
          "internalType": "address",
          "name": "spender",
          "type": "address"
        },
        {
          "internalType": "uint256",
          "name": "addedValue",
          "type": "uint256"
        }
      ],
      "name": "increaseAllowance",
      "outputs": [
        {
          "internalType": "bool",
          "name": "",
          "type": "bool"
        }
      ],
      "stateMutability": "nonpayable",
      "type": "function"
    },
    {
      "inputs": [
        {
          "internalType": "address",
          "name": "_ecosystemFund",
          "type": "address"
        },
        {
          "internalType": "address",
          "name": "_communityAirdrop",
          "type": "address"
        },
        {
          "internalType": "address",
          "name": "_liquidityPool",
          "type": "address"
        },
        {
          "internalType": "address",
          "name": "_privateInvestors",
          "type": "address"
        },
        {
          "internalType": "address",
          "name": "_openClawFund",
          "type": "address"
        },
        {
          "internalType": "address",
          "name": "_teamWallet",
          "type": "address"
        }
      ],
      "name": "initialize",
      "outputs": [],
      "stateMutability": "nonpayable",
      "type": "function"
    },
    {
      "inputs": [],
      "name": "isInitialized",
      "outputs": [
        {
          "internalType": "bool",
          "name": "",
          "type": "bool"
        }
      ],
      "stateMutability": "view",
      "type": "function"
    },
    {
      "inputs": [],
      "name": "launchTime",
      "outputs": [
        {
          "internalType": "uint256",
          "name": "",
          "type": "uint256"
        }
      ],
      "stateMutability": "view",
      "type": "function"
    },
    {
      "inputs": [],
      "name": "liquidityPool",
      "outputs": [
        {
          "internalType": "address",
          "name": "",
          "type": "address"
        }
      ],
      "stateMutability": "view",
      "type": "function"
    },
    {
      "inputs": [
        {
          "internalType": "address",
          "name": "",
          "type": "address"
        }
      ],
      "name": "lockedAmount",
      "outputs": [
        {
          "internalType": "uint256",
          "name": "",
          "type": "uint256"
        }
      ],
      "stateMutability": "view",
      "type": "function"
    },
    {
      "inputs": [
        {
          "internalType": "address",
          "name": "to",
          "type": "address"
        },
        {
          "internalType": "uint256",
          "name": "amount",
          "type": "uint256"
        }
      ],
      "name": "mint",
      "outputs": [],
      "stateMutability": "nonpayable",
      "type": "function"
    },
    {
      "inputs": [],
      "name": "name",
      "outputs": [
        {
          "internalType": "string",
          "name": "",
          "type": "string"
        }
      ],
      "stateMutability": "view",
      "type": "function"
    },
    {
      "inputs": [
        {
          "internalType": "address",
          "name": "owner",
          "type": "address"
        }
      ],
      "name": "nonces",
      "outputs": [
        {
          "internalType": "uint256",
          "name": "",
          "type": "uint256"
        }
      ],
      "stateMutability": "view",
      "type": "function"
    },
    {
      "inputs": [],
      "name": "openClawFund",
      "outputs": [
        {
          "internalType": "address",
          "name": "",
          "type": "address"
        }
      ],
      "stateMutability": "view",
      "type": "function"
    },
    {
      "inputs": [],
      "name": "pause",
      "outputs": [],
      "stateMutability": "nonpayable",
      "type": "function"
    },
    {
      "inputs": [],
      "name": "paused",
      "outputs": [
        {
          "internalType": "bool",
          "name": "",
          "type": "bool"
        }
      ],
      "stateMutability": "view",
      "type": "function"
    },
    {
      "inputs": [
        {
          "internalType": "address",
          "name": "owner",
          "type": "address"
        },
        {
          "internalType": "address",
          "name": "spender",
          "type": "address"
        },
        {
          "internalType": "uint256",
          "name": "value",
          "type": "uint256"
        },
        {
          "internalType": "uint256",
          "name": "deadline",
          "type": "uint256"
        },
        {
          "internalType": "uint8",
          "name": "v",
          "type": "uint8"
        },
        {
          "internalType": "bytes32",
          "name": "r",
          "type": "bytes32"
        },
        {
          "internalType": "bytes32",
          "name": "s",
          "type": "bytes32"
        }
      ],
      "name": "permit",
      "outputs": [],
      "stateMutability": "nonpayable",
      "type": "function"
    },
    {
      "inputs": [],
      "name": "privateInvestors",
      "outputs": [
        {
          "internalType": "address",
          "name": "",
          "type": "address"
        }
      ],
      "stateMutability": "view",
      "type": "function"
    },
    {
      "inputs": [
        {
          "internalType": "bytes32",
          "name": "role",
          "type": "bytes32"
        },
        {
          "internalType": "address",
          "name": "account",
          "type": "address"
        }
      ],
      "name": "renounceRole",
      "outputs": [],
      "stateMutability": "nonpayable",
      "type": "function"
    },
    {
      "inputs": [
        {
          "internalType": "bytes32",
          "name": "role",
          "type": "bytes32"
        },
        {
          "internalType": "address",
          "name": "account",
          "type": "address"
        }
      ],
      "name": "revokeRole",
      "outputs": [],
      "stateMutability": "nonpayable",
      "type": "function"
    },
    {
      "inputs": [
        {
          "internalType": "bytes4",
          "name": "interfaceId",
          "type": "bytes4"
        }
      ],
      "name": "supportsInterface",
      "outputs": [
        {
          "internalType": "bool",
          "name": "",
          "type": "bool"
        }
      ],
      "stateMutability": "view",
      "type": "function"
    },
    {
      "inputs": [],
      "name": "symbol",
      "outputs": [
        {
          "internalType": "string",
          "name": "",
          "type": "string"
        }
      ],
      "stateMutability": "view",
      "type": "function"
    },
    {
      "inputs": [],
      "name": "teamWallet",
      "outputs": [
        {
          "internalType": "address",
          "name": "",
          "type": "address"
        }
      ],
      "stateMutability": "view",
      "type": "function"
    },
    {
      "inputs": [],
      "name": "totalSupply",
      "outputs": [
        {
          "internalType": "uint256",
          "name": "",
          "type": "uint256"
        }
      ],
      "stateMutability": "view",
      "type": "function"
    },
    {
      "inputs": [
        {
          "internalType": "address",
          "name": "to",
          "type": "address"
        },
        {
          "internalType": "uint256",
          "name": "amount",
          "type": "uint256"
        }
      ],
      "name": "transfer",
      "outputs": [
        {
          "internalType": "bool",
          "name": "",
          "type": "bool"
        }
      ],
      "stateMutability": "nonpayable",
      "type": "function"
    },
    {
      "inputs": [
        {
          "internalType": "address",
          "name": "from",
          "type": "address"
        },
        {
          "internalType": "address",
          "name": "to",
          "type": "address"
        },
        {
          "internalType": "uint256",
          "name": "amount",
          "type": "uint256"
        }
      ],
      "name": "transferFrom",
      "outputs": [
        {
          "internalType": "bool",
          "name": "",
          "type": "bool"
        }
      ],
      "stateMutability": "nonpayable",
      "type": "function"
    },
    {
      "inputs": [
        {
          "internalType": "address",
          "name": "beneficiary",
          "type": "address"
        }
      ],
      "name": "unlockPrivateInvestor",
      "outputs": [],
      "stateMutability": "nonpayable",
      "type": "function"
    },
    {
      "inputs": [],
      "name": "unpause",
      "outputs": [],
      "stateMutability": "nonpayable",
      "type": "function"
    },
    {
      "inputs": [
        {
          "internalType": "address",
          "name": "newWallet",
          "type": "address"
        }
      ],
      "name": "updateTeamWallet",
      "outputs": [],
      "stateMutability": "nonpayable",
      "type": "function"
    },
    {
      "inputs": [
        {
          "internalType": "address",
          "name": "",
          "type": "address"
        }
      ],
      "name": "vestingDuration",
      "outputs": [
        {
          "internalType": "uint256",
          "name": "",
          "type": "uint256"
        }
      ],
      "stateMutability": "view",
      "type": "function"
    },
    {
      "inputs": [
        {
          "internalType": "address",
          "name": "",
          "type": "address"
        }
      ],
      "name": "vestingStart",
      "outputs": [
        {
          "internalType": "uint256",
          "name": "",
          "type": "uint256"
        }
      ],
      "stateMutability": "view",
      "type": "function"
    }
  ],
  "bytecode": "0x610160604052600c805460ff191690553480156200001c57600080fd5b506040518060400160405280600881526020016721b630bba1b7b4b760c11b81525080604051806040016040528060018152602001603160f81b8152506040518060400160405280600881526020016721b630bba1b7b4b760c11b81525060405180604001604052806004815260200163434c415760e01b8152508160039081620000a89190620003eb565b506004620000b78282620003eb565b50620000c9915083905060056200021c565b61012052620000da8160066200021c565b61014052815160208084019190912060e052815190820120610100524660a0526200016860e05161010051604080517f8b73c3c69bb8fe3d512ecc4cf759cc79239f7b179b0ffacaa9a75d522b39400f60208201529081019290925260608201524660808201523060a082015260009060c00160405160208183030381529060405280519060200120905090565b60805250503060c05250600a805460ff191690556001600b556200018e60003362000255565b620001ba7f9f2df0fed2c77648de5860a4cc508cd0818c85b8b8a1ab4ceeef8d981c8956a63362000255565b620001e67f3c11d16cbaffd01df69ce1c404f6340ee057498f5f00246190ea54220576a8483362000255565b620002127f97667070c54ef182b0f5858b034beac1b6f3089aa2d3188bb1e8929f4fa9b9293362000255565b426012556200052c565b60006020835110156200023c576200023483620002fa565b90506200024f565b81620002498482620003eb565b5060ff90505b92915050565b60008281526009602090815260408083206001600160a01b038516845290915290205460ff16620002f65760008281526009602090815260408083206001600160a01b03851684529091529020805460ff19166001179055620002b53390565b6001600160a01b0316816001600160a01b0316837f2f8788117e7eff1d82e926ec794901d17c78024a50270940304540a733656f0d60405160405180910390a45b5050565b600080829050601f8151111562000331578260405163305a27a960e01b8152600401620003289190620004b7565b60405180910390fd5b80516200033e8262000507565b179392505050565b634e487b7160e01b600052604160045260246000fd5b600181811c908216806200037157607f821691505b6020821081036200039257634e487b7160e01b600052602260045260246000fd5b50919050565b601f821115620003e657600081815260208120601f850160051c81016020861015620003c15750805b601f850160051c820191505b81811015620003e257828155600101620003cd565b5050505b505050565b81516001600160401b0381111562000407576200040762000346565b6200041f816200041884546200035c565b8462000398565b602080601f8311600181146200045757600084156200043e5750858301515b600019600386901b1c1916600185901b178555620003e2565b600085815260208120601f198616915b82811015620004885788860151825594840194600190910190840162000467565b5085821015620004a75787850151600019600388901b60f8161c191681555b5050505050600190811b01905550565b600060208083528351808285015260005b81811015620004e657858101830151858201604001528201620004c8565b506000604082860101526040601f19601f8301168501019250505092915050565b80516020808301519190811015620003925760001960209190910360031b1b16919050565b60805160a05160c05160e05161010051610120516101405161295d620005876000396000610ace01526000610aa3015260006118a50152600061187d015260006117d8015260006118020152600061182c015261295d6000f3fe608060405234801561001057600080fd5b50600436106102bb5760003560e01c806370a0823111610182578063a217fddf116100e9578063d2a1a645116100a2578063d547741f1161007c578063d547741f1461067e578063db2e21bc14610691578063dd62ed3e14610699578063f5b541a6146106ac57600080fd5b8063d2a1a64514610631578063d505accf14610644578063d53913931461065757600080fd5b8063a217fddf146105c4578063a457c2d7146105cc578063a9059cbb146105df578063abb1dc44146105f2578063c095f8aa1461060b578063cc2a9a5b1461061e57600080fd5b8063902d55a51161013b578063902d55a51461055157806391d1485414610563578063929ec5371461057657806395d89b41146105895780639dc29fac14610591578063a153e708146105a457600080fd5b806370a08231146104d6578063790ca413146104ff5780637cb332bb146105085780637ecebe001461051b5780638456cb591461052e57806384b0196e1461053657600080fd5b80632e0f26251161022657806339509351116101df57806339509351146104775780633f4ba83a1461048a57806340c10f191461049257806359927044146104a55780635c975abb146104b8578063665a11ca146104c357600080fd5b80632e0f26251461041b5780632f2ff15d14610435578063313ce567146104485780633644e5151461044f57806336568abe14610457578063392e53cd1461046a57600080fd5b80631d0cf683116102785780631d0cf6831461036657806323b872dd14610396578063248a9ca3146103a9578063282c51f3146103cc5780632b528cc4146103f35780632c989aaf1461040857600080fd5b806301ffc9a7146102c0578063032bbf4f146102e857806306fdde0314610316578063095ea7b31461032b57806312a144991461033e57806318160ddd1461035e575b600080fd5b6102d36102ce366004612424565b6106d3565b60405190151581526020015b60405180910390f35b6103086102f636600461246a565b60146020526000908152604090205481565b6040519081526020016102df565b61031e61070a565b6040516102df91906124d5565b6102d36103393660046124e8565b61079c565b61030861034c36600461246a565b60156020526000908152604090205481565b600254610308565b600c5461037e9061010090046001600160a01b031681565b6040516001600160a01b0390911681526020016102df565b6102d36103a4366004612512565b6107b4565b6103086103b736600461254e565b60009081526009602052604090206001015490565b6103087f3c11d16cbaffd01df69ce1c404f6340ee057498f5f00246190ea54220576a84881565b61040661040136600461246a565b6107d8565b005b600f5461037e906001600160a01b031681565b610423601281565b60405160ff90911681526020016102df565b610406610443366004612567565b6108bd565b6012610423565b6103086108e7565b610406610465366004612567565b6108f6565b600c546102d39060ff1681565b6102d36104853660046124e8565b610974565b610406610996565b6104066104a03660046124e8565b6109ac565b60115461037e906001600160a01b031681565b600a5460ff166102d3565b600e5461037e906001600160a01b031681565b6103086104e436600461246a565b6001600160a01b031660009081526020819052604090205490565b61030860125481565b61040661051636600461246a565b6109e0565b61030861052936600461246a565b610a64565b610406610a82565b61053e610a95565b6040516102df9796959493929190612593565b610308676765c793fa10079d601b1b81565b6102d3610571366004612567565b610b1e565b61030861058436600461246a565b610b49565b61031e610c3e565b61040661059f3660046124e8565b610c4d565b6103086105b236600461246a565b60136020526000908152604090205481565b610308600081565b6102d36105da3660046124e8565b610c81565b6102d36105ed3660046124e8565b610cfc565b6105fa610d0a565b6040516102df959493929190612629565b60105461037e906001600160a01b031681565b61040661062c36600461266f565b610d92565b600d5461037e906001600160a01b031681565b6104066106523660046126e3565b6111f0565b6103087f9f2df0fed2c77648de5860a4cc508cd0818c85b8b8a1ab4ceeef8d981c8956a681565b61040661068c366004612567565b611354565b610406611379565b6103086106a7366004612756565b6113c3565b6103087f97667070c54ef182b0f5858b034beac1b6f3089aa2d3188bb1e8929f4fa9b92981565b60006001600160e01b03198216637965db0b60e01b148061070457506301ffc9a760e01b6001600160e01b03198316145b92915050565b60606003805461071990612780565b80601f016020809104026020016040519081016040528092919081815260200182805461074590612780565b80156107925780601f1061076757610100808354040283529160200191610792565b820191906000526020600020905b81548152906001019060200180831161077557829003601f168201915b5050505050905090565b6000336107aa8185856113ee565b5060019392505050565b6000336107c2858285611512565b6107cd85858561158c565b506001949350505050565b7f97667070c54ef182b0f5858b034beac1b6f3089aa2d3188bb1e8929f4fa9b9296108028161173b565b6001600160a01b03821660009081526013602052604090205461086c5760405162461bcd60e51b815260206004820152601a60248201527f436c6177436f696e3a206e6f206c6f636b656420746f6b656e7300000000000060448201526064015b60405180910390fd5b6001600160a01b0382166000818152601360209081526040808320839055519182527fe7b379c6c1fa169e9079c25e9143b127637eef8ec8c9d5c06ddb4ab3e1195888910160405180910390a25050565b6000828152600960205260409020600101546108d88161173b565b6108e28383611745565b505050565b60006108f16117cb565b905090565b6001600160a01b03811633146109665760405162461bcd60e51b815260206004820152602f60248201527f416363657373436f6e74726f6c3a2063616e206f6e6c792072656e6f756e636560448201526e103937b632b9903337b91039b2b63360891b6064820152608401610863565b61097082826118f6565b5050565b6000336107aa81858561098783836113c3565b61099191906127ca565b6113ee565b60006109a18161173b565b6109a961195d565b50565b7f9f2df0fed2c77648de5860a4cc508cd0818c85b8b8a1ab4ceeef8d981c8956a66109d68161173b565b6108e283836119af565b60006109eb8161173b565b6001600160a01b038216610a115760405162461bcd60e51b8152600401610863906127dd565b601180546001600160a01b038481166001600160a01b0319831681179093556040519116919082907fd9a2a08302ed3220f4e646ff99d6780d87e27baddf1af05679dc930ce811309590600090a3505050565b6001600160a01b038116600090815260076020526040812054610704565b6000610a8d8161173b565b6109a9611a7a565b600060608082808083610ac97f00000000000000000000000000000000000000000000000000000000000000006005611ab7565b610af47f00000000000000000000000000000000000000000000000000000000000000006006611ab7565b60408051600080825260208201909252600f60f81b9b939a50919850469750309650945092509050565b60009182526009602090815260408084206001600160a01b0393909316845291905290205460ff1690565b6001600160a01b0381166000908152601360205260408120548103610b7057506000919050565b6001600160a01b038216600090815260146020526040812054610b939042612823565b6001600160a01b038416600090815260156020526040812054919250908210610bd557506001600160a01b038316600090815260136020526040902054610c12565b6001600160a01b038416600090815260156020908152604080832054601390925290912054610c05908490612836565b610c0f919061284d565b90505b6001600160a01b038416600090815260136020526040902054610c36908290612823565b949350505050565b60606004805461071990612780565b7f3c11d16cbaffd01df69ce1c404f6340ee057498f5f00246190ea54220576a848610c778161173b565b6108e28383611b62565b60003381610c8f82866113c3565b905083811015610cef5760405162461bcd60e51b815260206004820152602560248201527f45524332303a2064656372656173656420616c6c6f77616e63652062656c6f77604482015264207a65726f60d81b6064820152608401610863565b6107cd82868684036113ee565b6000336107aa81858561158c565b6060806000806000610d1a61070a565b610d22610c3e565b6002546011546001600160a01b03908116600090815260136020526040808220546010548416835281832054600c54610100900490941683529120546012939290610d6d9084612823565b610d779190612823565b610d819190612823565b945094509450945094509091929394565b6000610d9d8161173b565b600c5460ff1615610df05760405162461bcd60e51b815260206004820152601d60248201527f436c6177436f696e3a20616c726561647920696e697469616c697a65640000006044820152606401610863565b6001600160a01b038716610e165760405162461bcd60e51b8152600401610863906127dd565b6001600160a01b038616610e3c5760405162461bcd60e51b8152600401610863906127dd565b6001600160a01b038516610e625760405162461bcd60e51b8152600401610863906127dd565b6001600160a01b038416610e885760405162461bcd60e51b8152600401610863906127dd565b6001600160a01b038316610eae5760405162461bcd60e51b8152600401610863906127dd565b6001600160a01b038216610ed45760405162461bcd60e51b8152600401610863906127dd565b600c8054610100600160a81b0319166101006001600160a01b038a81169190910291909117909155600d80546001600160a01b031990811689841617909155600e80548216888416908117909155600f805483168885161781556010805484168886161790556011805490931693861693909317909155610f7791606490610f6890676765c793fa10079d601b1b90612836565b610f72919061284d565b6119af565b6000606480610f92676765c793fa10079d601b1b6014612836565b610f9c919061284d565b610fa790600a612836565b610fb1919061284d565b600d54909150610fca906001600160a01b0316826119af565b600d54611011906001600160a01b0316826064610ff3676765c793fa10079d601b1b6014612836565b610ffd919061284d565b6110079190612823565b6301e13380611ca0565b600f54611039906001600160a01b03166064610f68676765c793fa10079d601b1b600a612836565b600f54611072906001600160a01b03166064611061676765c793fa10079d601b1b600a612836565b61106b919061284d565b6000611ca0565b600c5461109f9061010090046001600160a01b03166064610f68676765c793fa10079d601b1b601e612836565b600c546110e09061010090046001600160a01b031660646110cc676765c793fa10079d601b1b601e612836565b6110d6919061284d565b6303c26700611ca0565b601054611108906001600160a01b03166064610f68676765c793fa10079d601b1b600f612836565b601054611130906001600160a01b031660646110cc676765c793fa10079d601b1b600f612836565b601154611158906001600160a01b03166064610f68676765c793fa10079d601b1b600a612836565b601154611180906001600160a01b031660646110cc676765c793fa10079d601b1b600a612836565b600c805460ff19166001179055604080516001600160a01b0387811682528681166020830152858116828401529151888316928a811692908c16917f58ca036ed94ee2b2004adac9f54a88961a882010564179aefa6106f7977102a9916060908290030190a45050505050505050565b834211156112405760405162461bcd60e51b815260206004820152601d60248201527f45524332305065726d69743a206578706972656420646561646c696e650000006044820152606401610863565b60007f6e71edae12b1b97f4d1f60370fef10105fa2faae0126114a169c64845d6126c988888861126f8c611d2e565b6040805160208101969096526001600160a01b0394851690860152929091166060840152608083015260a082015260c0810186905260e00160405160208183030381529060405280519060200120905060006112ca82611d56565b905060006112da82878787611d83565b9050896001600160a01b0316816001600160a01b03161461133d5760405162461bcd60e51b815260206004820152601e60248201527f45524332305065726d69743a20696e76616c6964207369676e617475726500006044820152606401610863565b6113488a8a8a6113ee565b50505050505050505050565b60008281526009602052604090206001015461136f8161173b565b6108e283836118f6565b60006113848161173b565b61138c611dab565b60405133904780156108fc02916000818181858888f193505050501580156113b8573d6000803e3d6000fd5b506109a96001600b55565b6001600160a01b03918216600090815260016020908152604080832093909416825291909152205490565b6001600160a01b0383166114505760405162461bcd60e51b8152602060048201526024808201527f45524332303a20617070726f76652066726f6d20746865207a65726f206164646044820152637265737360e01b6064820152608401610863565b6001600160a01b0382166114b15760405162461bcd60e51b815260206004820152602260248201527f45524332303a20617070726f766520746f20746865207a65726f206164647265604482015261737360f01b6064820152608401610863565b6001600160a01b0383811660008181526001602090815260408083209487168084529482529182902085905590518481527f8c5be1e5ebec7d5bd14f71427d1e84f3dd0314c0f7b2291e5b200ac8c7c3b925910160405180910390a3505050565b600061151e84846113c3565b9050600019811461158657818110156115795760405162461bcd60e51b815260206004820152601d60248201527f45524332303a20696e73756666696369656e7420616c6c6f77616e63650000006044820152606401610863565b61158684848484036113ee565b50505050565b6001600160a01b0383166115f05760405162461bcd60e51b815260206004820152602560248201527f45524332303a207472616e736665722066726f6d20746865207a65726f206164604482015264647265737360d81b6064820152608401610863565b6001600160a01b0382166116525760405162461bcd60e51b815260206004820152602360248201527f45524332303a207472616e7366657220746f20746865207a65726f206164647260448201526265737360e81b6064820152608401610863565b61165d838383611e04565b6001600160a01b038316600090815260208190526040902054818110156116d55760405162461bcd60e51b815260206004820152602660248201527f45524332303a207472616e7366657220616d6f756e7420657863656564732062604482015265616c616e636560d01b6064820152608401610863565b6001600160a01b03848116600081815260208181526040808320878703905593871680835291849020805487019055925185815290927fddf252ad1be2c89b69c2b068fc378daa952ba7f163c4a11628f55a4df523b3ef910160405180910390a3611586565b6109a98133611f10565b61174f8282610b1e565b6109705760008281526009602090815260408083206001600160a01b03851684529091529020805460ff191660011790556117873390565b6001600160a01b0316816001600160a01b0316837f2f8788117e7eff1d82e926ec794901d17c78024a50270940304540a733656f0d60405160405180910390a45050565b6000306001600160a01b037f00000000000000000000000000000000000000000000000000000000000000001614801561182457507f000000000000000000000000000000000000000000000000000000000000000046145b1561184e57507f000000000000000000000000000000000000000000000000000000000000000090565b6108f1604080517f8b73c3c69bb8fe3d512ecc4cf759cc79239f7b179b0ffacaa9a75d522b39400f60208201527f0000000000000000000000000000000000000000000000000000000000000000918101919091527f000000000000000000000000000000000000000000000000000000000000000060608201524660808201523060a082015260009060c00160405160208183030381529060405280519060200120905090565b6119008282610b1e565b156109705760008281526009602090815260408083206001600160a01b0385168085529252808320805460ff1916905551339285917ff6391f5c32d9c69d2a47ea670b442974b53935d1edc7fd64eb21e047a839171b9190a45050565b611965611f69565b600a805460ff191690557f5db9ee0a495bf2e6ff9c91a7834c1ba4fdd244a5e8aa4e537bd38aeae4b073aa335b6040516001600160a01b03909116815260200160405180910390a1565b6001600160a01b038216611a055760405162461bcd60e51b815260206004820152601f60248201527f45524332303a206d696e7420746f20746865207a65726f2061646472657373006044820152606401610863565b611a1160008383611e04565b8060026000828254611a2391906127ca565b90915550506001600160a01b038216600081815260208181526040808320805486019055518481527fddf252ad1be2c89b69c2b068fc378daa952ba7f163c4a11628f55a4df523b3ef910160405180910390a35050565b611a82611fb4565b600a805460ff191660011790557f62e78cea01bee320cd4e420270b5ea74000d11b0c9f74754ebdbfc544b05a2586119923390565b606060ff8314611ad157611aca83611ffa565b9050610704565b818054611add90612780565b80601f0160208091040260200160405190810160405280929190818152602001828054611b0990612780565b8015611b565780601f10611b2b57610100808354040283529160200191611b56565b820191906000526020600020905b815481529060010190602001808311611b3957829003601f168201915b50505050509050610704565b6001600160a01b038216611bc25760405162461bcd60e51b815260206004820152602160248201527f45524332303a206275726e2066726f6d20746865207a65726f206164647265736044820152607360f81b6064820152608401610863565b611bce82600083611e04565b6001600160a01b03821660009081526020819052604090205481811015611c425760405162461bcd60e51b815260206004820152602260248201527f45524332303a206275726e20616d6f756e7420657863656564732062616c616e604482015261636560f01b6064820152608401610863565b6001600160a01b0383166000818152602081815260408083208686039055600280548790039055518581529192917fddf252ad1be2c89b69c2b068fc378daa952ba7f163c4a11628f55a4df523b3ef910160405180910390a3505050565b600082118015611cb05750600081115b156108e2576001600160a01b038316600081815260136020908152604080832086905560148252808320429081905560158352928190208590558051868152918201929092529081018390527f90e20a62e0f2a608d33bd96a4e15cb853006a15caf4455f373b7b55de520b68c9060600160405180910390a2505050565b6001600160a01b03811660009081526007602052604090208054600181018255905b50919050565b6000610704611d636117cb565b8360405161190160f01b8152600281019290925260228201526042902090565b6000806000611d9487878787612039565b91509150611da1816120fd565b5095945050505050565b6002600b5403611dfd5760405162461bcd60e51b815260206004820152601f60248201527f5265656e7472616e637947756172643a207265656e7472616e742063616c6c006044820152606401610863565b6002600b55565b600c5460ff16611e565760405162461bcd60e51b815260206004820152601960248201527f436c6177436f696e3a206e6f7420696e697469616c697a6564000000000000006044820152606401610863565b6001600160a01b03831615801590611e8557506001600160a01b03831660009081526013602052604090205415155b156108e2576000611e9584610b49565b90508082611eb8866001600160a01b031660009081526020819052604090205490565b611ec29190612823565b10156115865760405162461bcd60e51b815260206004820152601760248201527f436c6177436f696e3a20746f6b656e73206c6f636b65640000000000000000006044820152606401610863565b611f1a8282610b1e565b61097057611f2781612247565b611f32836020612259565b604051602001611f4392919061286f565b60408051601f198184030181529082905262461bcd60e51b8252610863916004016124d5565b600a5460ff16611fb25760405162461bcd60e51b815260206004820152601460248201527314185d5cd8589b194e881b9bdd081c185d5cd95960621b6044820152606401610863565b565b600a5460ff1615611fb25760405162461bcd60e51b815260206004820152601060248201526f14185d5cd8589b194e881c185d5cd95960821b6044820152606401610863565b60606000612007836123fc565b604080516020808252818301909252919250600091906020820181803683375050509182525060208101929092525090565b6000807f7fffffffffffffffffffffffffffffff5d576e7357a4501ddfe92f46681b20a083111561207057506000905060036120f4565b6040805160008082526020820180845289905260ff881692820192909252606081018690526080810185905260019060a0016020604051602081039080840390855afa1580156120c4573d6000803e3d6000fd5b5050604051601f1901519150506001600160a01b0381166120ed576000600192509250506120f4565b9150600090505b94509492505050565b6000816004811115612111576121116128e4565b036121195750565b600181600481111561212d5761212d6128e4565b0361217a5760405162461bcd60e51b815260206004820152601860248201527f45434453413a20696e76616c6964207369676e617475726500000000000000006044820152606401610863565b600281600481111561218e5761218e6128e4565b036121db5760405162461bcd60e51b815260206004820152601f60248201527f45434453413a20696e76616c6964207369676e6174757265206c656e677468006044820152606401610863565b60038160048111156121ef576121ef6128e4565b036109a95760405162461bcd60e51b815260206004820152602260248201527f45434453413a20696e76616c6964207369676e6174757265202773272076616c604482015261756560f01b6064820152608401610863565b60606107046001600160a01b03831660145b60606000612268836002612836565b6122739060026127ca565b67ffffffffffffffff81111561228b5761228b61280d565b6040519080825280601f01601f1916602001820160405280156122b5576020820181803683370190505b509050600360fc1b816000815181106122d0576122d06128fa565b60200101906001600160f81b031916908160001a905350600f60fb1b816001815181106122ff576122ff6128fa565b60200101906001600160f81b031916908160001a9053506000612323846002612836565b61232e9060016127ca565b90505b60018111156123a6576f181899199a1a9b1b9c1cb0b131b232b360811b85600f1660108110612362576123626128fa565b1a60f81b828281518110612378576123786128fa565b60200101906001600160f81b031916908160001a90535060049490941c9361239f81612910565b9050612331565b5083156123f55760405162461bcd60e51b815260206004820181905260248201527f537472696e67733a20686578206c656e67746820696e73756666696369656e746044820152606401610863565b9392505050565b600060ff8216601f81111561070457604051632cd44ac360e21b815260040160405180910390fd5b60006020828403121561243657600080fd5b81356001600160e01b0319811681146123f557600080fd5b80356001600160a01b038116811461246557600080fd5b919050565b60006020828403121561247c57600080fd5b6123f58261244e565b60005b838110156124a0578181015183820152602001612488565b50506000910152565b600081518084526124c1816020860160208601612485565b601f01601f19169290920160200192915050565b6020815260006123f560208301846124a9565b600080604083850312156124fb57600080fd5b6125048361244e565b946020939093013593505050565b60008060006060848603121561252757600080fd5b6125308461244e565b925061253e6020850161244e565b9150604084013590509250925092565b60006020828403121561256057600080fd5b5035919050565b6000806040838503121561257a57600080fd5b8235915061258a6020840161244e565b90509250929050565b60ff60f81b881681526000602060e0818401526125b360e084018a6124a9565b83810360408501526125c5818a6124a9565b606085018990526001600160a01b038816608086015260a0850187905284810360c0860152855180825283870192509083019060005b81811015612617578351835292840192918401916001016125fb565b50909c9b505050505050505050505050565b60a08152600061263c60a08301886124a9565b828103602084015261264e81886124a9565b60ff9690961660408401525050606081019290925260809091015292915050565b60008060008060008060c0878903121561268857600080fd5b6126918761244e565b955061269f6020880161244e565b94506126ad6040880161244e565b93506126bb6060880161244e565b92506126c96080880161244e565b91506126d760a0880161244e565b90509295509295509295565b600080600080600080600060e0888a0312156126fe57600080fd5b6127078861244e565b96506127156020890161244e565b95506040880135945060608801359350608088013560ff8116811461273957600080fd5b9699959850939692959460a0840135945060c09093013592915050565b6000806040838503121561276957600080fd5b6127728361244e565b915061258a6020840161244e565b600181811c9082168061279457607f821691505b602082108103611d5057634e487b7160e01b600052602260045260246000fd5b634e487b7160e01b600052601160045260246000fd5b80820180821115610704576107046127b4565b602080825260169082015275436c6177436f696e3a207a65726f206164647265737360501b604082015260600190565b634e487b7160e01b600052604160045260246000fd5b81810381811115610704576107046127b4565b8082028115828204841417610704576107046127b4565b60008261286a57634e487b7160e01b600052601260045260246000fd5b500490565b7f416363657373436f6e74726f6c3a206163636f756e74200000000000000000008152600083516128a7816017850160208801612485565b7001034b99036b4b9b9b4b733903937b6329607d1b60179184019182015283516128d8816028840160208801612485565b01602801949350505050565b634e487b7160e01b600052602160045260246000fd5b634e487b7160e01b600052603260045260246000fd5b60008161291f5761291f6127b4565b50600019019056fea264697066735822122083dc0760bc28a4bea562acad29516fa03e74c450ea4921cb62b3985d03ac5eea64736f6c63430008140033",
  "linkReferences": {},
  "deployedLinkReferences": {}
}