{
  "_format": "hh-sol-artifact-1",
  "contractName": "ClawCoin",
  "sourceName": "contracts/ClawCoin.sol",
  "abi": [
    {
      "inputs": [],
      "stateMutability": "nonpayable",
      "type": "constructor"
    },
    {
      "anonymous": false,
      "inputs": [
        {
          "indexed": true,
          "internalType": "address",
          "name": "owner",
          "type": "address"
        },
        {
          "indexed": true,
          "internalType": "address",
          "name": "spender",
          "type": "address"
        },
        {
          "indexed": false,
          "internalType": "uint256",
          "name": "value",
          "type": "uint256"
        }
      ],
      "name": "Approval",
      "type": "event"
    },
    {
      "anonymous": false,
      "inputs": [
        {
          "indexed": false,
          "internalType": "bool",
          "name": "enabled",
          "type": "bool"
        }
      ],
      "name": "BurnToggled",
      "type": "event"
    },
    {
      "anonymous": false,
      "inputs": [
        {
          "indexed": true,
          "internalType": "address",
          "name": "oldPair",
          "type": "address"
        },
        {
          "indexed": true,
          "internalType": "address",
          "name": "newPair",
          "type": "address"
        }
      ],
      "name": "LpPairUpdated",
      "type": "event"
    },
    {
      "anonymous": false,
      "inputs": [
        {
          "indexed": true,
          "internalType": "address",
          "name": "oldWallet",
          "type": "address"
        },
        {
          "indexed": true,
          "internalType": "address",
          "name": "newWallet",
          "type": "address"
        }
      ],
      "name": "MarketingWalletUpdated",
      "type": "event"
    },
    {
      "anonymous": false,
      "inputs": [
        {
          "indexed": true,
          "internalType": "address",
          "name": "previousOwner",
          "type": "address"
        },
        {
          "indexed": true,
          "internalType": "address",
          "name": "newOwner",
          "type": "address"
        }
      ],
      "name": "OwnershipTransferred",
      "type": "event"
    },
    {
      "anonymous": false,
      "inputs": [
        {
          "indexed": true,
          "internalType": "address",
          "name": "from",
          "type": "address"
        },
        {
          "indexed": false,
          "internalType": "uint256",
          "name": "amount",
          "type": "uint256"
        },
        {
          "indexed": false,
          "internalType": "uint256",
          "name": "burnedAmount",
          "type": "uint256"
        }
      ],
      "name": "TokensBurned",
      "type": "event"
    },
    {
      "anonymous": false,
      "inputs": [
        {
          "indexed": true,
          "internalType": "address",
          "name": "from",
          "type": "address"
        },
        {
          "indexed": true,
          "internalType": "address",
          "name": "to",
          "type": "address"
        },
        {
          "indexed": false,
          "internalType": "uint256",
          "name": "value",
          "type": "uint256"
        }
      ],
      "name": "Transfer",
      "type": "event"
    },
    {
      "inputs": [],
      "name": "BURN_RATE",
      "outputs": [
        {
          "internalType": "uint256",
          "name": "",
          "type": "uint256"
        }
      ],
      "stateMutability": "view",
      "type": "function"
    },
    {
      "inputs": [],
      "name": "DEAD_ADDRESS",
      "outputs": [
        {
          "internalType": "address",
          "name": "",
          "type": "address"
        }
      ],
      "stateMutability": "view",
      "type": "function"
    },
    {
      "inputs": [],
      "name": "INITIAL_SUPPLY",
      "outputs": [
        {
          "internalType": "uint256",
          "name": "",
          "type": "uint256"
        }
      ],
      "stateMutability": "view",
      "type": "function"
    },
    {
      "inputs": [
        {
          "internalType": "address",
          "name": "owner",
          "type": "address"
        },
        {
          "internalType": "address",
          "name": "spender",
          "type": "address"
        }
      ],
      "name": "allowance",
      "outputs": [
        {
          "internalType": "uint256",
          "name": "",
          "type": "uint256"
        }
      ],
      "stateMutability": "view",
      "type": "function"
    },
    {
      "inputs": [
        {
          "internalType": "address",
          "name": "spender",
          "type": "address"
        },
        {
          "internalType": "uint256",
          "name": "amount",
          "type": "uint256"
        }
      ],
      "name": "approve",
      "outputs": [
        {
          "internalType": "bool",
          "name": "",
          "type": "bool"
        }
      ],
      "stateMutability": "nonpayable",
      "type": "function"
    },
    {
      "inputs": [
        {
          "internalType": "address",
          "name": "account",
          "type": "address"
        }
      ],
      "name": "balanceOf",
      "outputs": [
        {
          "internalType": "uint256",
          "name": "",
          "type": "uint256"
        }
      ],
      "stateMutability": "view",
      "type": "function"
    },
    {
      "inputs": [
        {
          "internalType": "uint256",
          "name": "amount",
          "type": "uint256"
        }
      ],
      "name": "burn",
      "outputs": [],
      "stateMutability": "nonpayable",
      "type": "function"
    },
    {
      "inputs": [],
      "name": "burnEnabled",
      "outputs": [
        {
          "internalType": "bool",
          "name": "",
          "type": "bool"
        }
      ],
      "stateMutability": "view",
      "type": "function"
    },
    {
      "inputs": [
        {
          "internalType": "address",
          "name": "account",
          "type": "address"
        },
        {
          "internalType": "uint256",
          "name": "amount",
          "type": "uint256"
        }
      ],
      "name": "burnFrom",
      "outputs": [],
      "stateMutability": "nonpayable",
      "type": "function"
    },
    {
      "inputs": [],
      "name": "decimals",
      "outputs": [
        {
          "internalType": "uint8",
          "name": "",
          "type": "uint8"
        }
      ],
      "stateMutability": "view",
      "type": "function"
    },
    {
      "inputs": [
        {
          "internalType": "address",
          "name": "spender",
          "type": "address"
        },
        {
          "internalType": "uint256",
          "name": "subtractedValue",
          "type": "uint256"
        }
      ],
      "name": "decreaseAllowance",
      "outputs": [
        {
          "internalType": "bool",
          "name": "",
          "type": "bool"
        }
      ],
      "stateMutability": "nonpayable",
      "type": "function"
    },
    {
      "inputs": [],
      "name": "getTokenInfo",
      "outputs": [
        {
          "internalType": "string",
          "name": "name_",
          "type": "string"
        },
        {
          "internalType": "string",
          "name": "symbol_",
          "type": "string"
        },
        {
          "internalType": "uint8",
          "name": "decimals_",
          "type": "uint8"
        },
        {
          "internalType": "uint256",
          "name": "totalSupply_",
          "type": "uint256"
        },
        {
          "internalType": "uint256",
          "name": "circulatingSupply_",
          "type": "uint256"
        },
        {
          "internalType": "uint256",
          "name": "totalBurned_",
          "type": "uint256"
        }
      ],
      "stateMutability": "view",
      "type": "function"
    },
    {
      "inputs": [
        {
          "internalType": "address",
          "name": "spender",
          "type": "address"
        },
        {
          "internalType": "uint256",
          "name": "addedValue",
          "type": "uint256"
        }
      ],
      "name": "increaseAllowance",
      "outputs": [
        {
          "internalType": "bool",
          "name": "",
          "type": "bool"
        }
      ],
      "stateMutability": "nonpayable",
      "type": "function"
    },
    {
      "inputs": [
        {
          "internalType": "address",
          "name": "_marketingWallet",
          "type": "address"
        },
        {
          "internalType": "address",
          "name": "_lpPair",
          "type": "address"
        }
      ],
      "name": "initialize",
      "outputs": [],
      "stateMutability": "nonpayable",
      "type": "function"
    },
    {
      "inputs": [],
      "name": "isInitialized",
      "outputs": [
        {
          "internalType": "bool",
          "name": "",
          "type": "bool"
        }
      ],
      "stateMutability": "view",
      "type": "function"
    },
    {
      "inputs": [],
      "name": "lpPair",
      "outputs": [
        {
          "internalType": "address",
          "name": "",
          "type": "address"
        }
      ],
      "stateMutability": "view",
      "type": "function"
    },
    {
      "inputs": [],
      "name": "marketingWallet",
      "outputs": [
        {
          "internalType": "address",
          "name": "",
          "type": "address"
        }
      ],
      "stateMutability": "view",
      "type": "function"
    },
    {
      "inputs": [],
      "name": "name",
      "outputs": [
        {
          "internalType": "string",
          "name": "",
          "type": "string"
        }
      ],
      "stateMutability": "view",
      "type": "function"
    },
    {
      "inputs": [],
      "name": "owner",
      "outputs": [
        {
          "internalType": "address",
          "name": "",
          "type": "address"
        }
      ],
      "stateMutability": "view",
      "type": "function"
    },
    {
      "inputs": [],
      "name": "renounceOwnership",
      "outputs": [],
      "stateMutability": "nonpayable",
      "type": "function"
    },
    {
      "inputs": [
        {
          "internalType": "bool",
          "name": "enabled",
          "type": "bool"
        }
      ],
      "name": "setBurnEnabled",
      "outputs": [],
      "stateMutability": "nonpayable",
      "type": "function"
    },
    {
      "inputs": [
        {
          "internalType": "address",
          "name": "newPair",
          "type": "address"
        }
      ],
      "name": "setLpPair",
      "outputs": [],
      "stateMutability": "nonpayable",
      "type": "function"
    },
    {
      "inputs": [
        {
          "internalType": "address",
          "name": "newWallet",
          "type": "address"
        }
      ],
      "name": "setMarketingWallet",
      "outputs": [],
      "stateMutability": "nonpayable",
      "type": "function"
    },
    {
      "inputs": [],
      "name": "symbol",
      "outputs": [
        {
          "internalType": "string",
          "name": "",
          "type": "string"
        }
      ],
      "stateMutability": "view",
      "type": "function"
    },
    {
      "inputs": [],
      "name": "totalBurned",
      "outputs": [
        {
          "internalType": "uint256",
          "name": "",
          "type": "uint256"
        }
      ],
      "stateMutability": "view",
      "type": "function"
    },
    {
      "inputs": [],
      "name": "totalSupply",
      "outputs": [
        {
          "internalType": "uint256",
          "name": "",
          "type": "uint256"
        }
      ],
      "stateMutability": "view",
      "type": "function"
    },
    {
      "inputs": [
        {
          "internalType": "address",
          "name": "to",
          "type": "address"
        },
        {
          "internalType": "uint256",
          "name": "amount",
          "type": "uint256"
        }
      ],
      "name": "transfer",
      "outputs": [
        {
          "internalType": "bool",
          "name": "",
          "type": "bool"
        }
      ],
      "stateMutability": "nonpayable",
      "type": "function"
    },
    {
      "inputs": [
        {
          "internalType": "address",
          "name": "from",
          "type": "address"
        },
        {
          "internalType": "address",
          "name": "to",
          "type": "address"
        },
        {
          "internalType": "uint256",
          "name": "amount",
          "type": "uint256"
        }
      ],
      "name": "transferFrom",
      "outputs": [
        {
          "internalType": "bool",
          "name": "",
          "type": "bool"
        }
      ],
      "stateMutability": "nonpayable",
      "type": "function"
    },
    {
      "inputs": [
        {
          "internalType": "address",
          "name": "newOwner",
          "type": "address"
        }
      ],
      "name": "transferOwnership",
      "outputs": [],
      "stateMutability": "nonpayable",
      "type": "function"
    },
    {
      "stateMutability": "payable",
      "type": "receive"
    }
  ],
  "bytecode": "0x60806040526005805460ff60a01b19169055600680546001600160a01b0319169055600780546001600160a81b031916600160a01b17905560006008553480156200004957600080fd5b506040518060400160405280600881526020016721b630bba1b7b4b760c11b81525060405180604001604052806004815260200163434c415760e01b8152508160039081620000999190620001c6565b506004620000a88282620001c6565b505050620000c5620000bf620000cb60201b60201c565b620000cf565b62000292565b3390565b600580546001600160a01b038381166001600160a01b0319831681179093556040519116919082907f8be0079c531659141344cd1fd0a4f28419497f9722a3daafe3b4186f6b6457e090600090a35050565b634e487b7160e01b600052604160045260246000fd5b600181811c908216806200014c57607f821691505b6020821081036200016d57634e487b7160e01b600052602260045260246000fd5b50919050565b601f821115620001c157600081815260208120601f850160051c810160208610156200019c5750805b601f850160051c820191505b81811015620001bd57828155600101620001a8565b5050505b505050565b81516001600160401b03811115620001e257620001e262000121565b620001fa81620001f3845462000137565b8462000173565b602080601f831160018114620002325760008415620002195750858301515b600019600386901b1c1916600185901b178555620001bd565b600085815260208120601f198616915b82811015620002635788860151825594840194600190910190840162000242565b5085821015620002825787850151600019600388901b60f8161c191681555b5050505050600190811b01905550565b61160180620002a26000396000f3fe6080604052600436106101c65760003560e01c806370a08231116100f7578063a35f942a11610095578063d89135cd11610064578063d89135cd1461051f578063dd62ed3e14610535578063f2fde38b14610555578063f846a8851461057557600080fd5b8063a35f942a14610498578063a457c2d7146104b8578063a9059cbb146104d8578063abb1dc44146104f857600080fd5b806379cc6790116100d157806379cc6790146104255780637b2c835f146104455780638da5cb5b1461046557806395d89b411461048357600080fd5b806370a08231146103ba578063715018a6146103f057806375f0a8741461040557600080fd5b80633950935111610164578063485cc9551161013e578063485cc955146103435780634e6fd6c4146103635780635d098b38146103795780635dc96d161461039957600080fd5b806339509351146102c957806342966c68146102e9578063452ed4f11461030b57600080fd5b806323b872dd116101a057806323b872dd1461024c5780632ff2e9dc1461026c578063313ce5671461028c578063392e53cd146102a857600080fd5b806306fdde03146101d2578063095ea7b3146101fd57806318160ddd1461022d57600080fd5b366101cd57005b600080fd5b3480156101de57600080fd5b506101e761058a565b6040516101f49190611389565b60405180910390f35b34801561020957600080fd5b5061021d6102183660046113bf565b61061c565b60405190151581526020016101f4565b34801561023957600080fd5b506002545b6040519081526020016101f4565b34801561025857600080fd5b5061021d6102673660046113e9565b610636565b34801561027857600080fd5b5061023e6b033b2e3c9fd0803ce800000081565b34801561029857600080fd5b50604051601281526020016101f4565b3480156102b457600080fd5b5060055461021d90600160a01b900460ff1681565b3480156102d557600080fd5b5061021d6102e43660046113bf565b61065a565b3480156102f557600080fd5b50610309610304366004611425565b61067c565b005b34801561031757600080fd5b5060065461032b906001600160a01b031681565b6040516001600160a01b0390911681526020016101f4565b34801561034f57600080fd5b5061030961035e36600461143e565b610689565b34801561036f57600080fd5b5061032b61dead81565b34801561038557600080fd5b50610309610394366004611471565b610809565b3480156103a557600080fd5b5060075461021d90600160a01b900460ff1681565b3480156103c657600080fd5b5061023e6103d5366004611471565b6001600160a01b031660009081526020819052604090205490565b3480156103fc57600080fd5b506103096108bc565b34801561041157600080fd5b5060075461032b906001600160a01b031681565b34801561043157600080fd5b506103096104403660046113bf565b6108d0565b34801561045157600080fd5b5061030961046036600461148c565b6108e9565b34801561047157600080fd5b506005546001600160a01b031661032b565b34801561048f57600080fd5b506101e7610949565b3480156104a457600080fd5b506103096104b3366004611471565b610958565b3480156104c457600080fd5b5061021d6104d33660046113bf565b610a0b565b3480156104e457600080fd5b5061021d6104f33660046113bf565b610a86565b34801561050457600080fd5b5061050d610a94565b6040516101f4969594939291906114ae565b34801561052b57600080fd5b5061023e60085481565b34801561054157600080fd5b5061023e61055036600461143e565b610b02565b34801561056157600080fd5b50610309610570366004611471565b610b2d565b34801561058157600080fd5b5061023e60c881565b606060038054610599906114fc565b80601f01602080910402602001604051908101604052809291908181526020018280546105c5906114fc565b80156106125780601f106105e757610100808354040283529160200191610612565b820191906000526020600020905b8154815290600101906020018083116105f557829003601f168201915b5050505050905090565b60003361062a818585610ba3565b60019150505b92915050565b600033610644858285610cc8565b61064f858585610d42565b506001949350505050565b60003361062a81858561066d8383610b02565b610677919061154c565b610ba3565b610686338261104a565b50565b610691611162565b600554600160a01b900460ff16156106f05760405162461bcd60e51b815260206004820152601d60248201527f436c6177436f696e3a20616c726561647920696e697469616c697a656400000060448201526064015b60405180910390fd5b6001600160a01b0382166107465760405162461bcd60e51b815260206004820152601f60248201527f436c6177436f696e3a207a65726f206d61726b6574696e672077616c6c65740060448201526064016106e7565b600780546001600160a01b0319166001600160a01b038481169190911790915581166107745761dead610776565b805b600680546001600160a01b0319166001600160a01b03929092169190911790556107c461dead60646107b56b033b2e3c9fd0803ce8000000603261155f565b6107bf9190611576565b6111bc565b6107f26107d96005546001600160a01b031690565b60646107b56b033b2e3c9fd0803ce8000000603261155f565b50506005805460ff60a01b1916600160a01b179055565b610811611162565b6001600160a01b0381166108605760405162461bcd60e51b8152602060048201526016602482015275436c6177436f696e3a207a65726f206164647265737360501b60448201526064016106e7565b6007546040516001600160a01b038084169216907f8616c7a330e3cf61290821331585511f1e2778171e2b005fb5ec60cfe874dc6790600090a3600780546001600160a01b0319166001600160a01b0392909216919091179055565b6108c4611162565b6108ce6000611269565b565b6108db823383610cc8565b6108e5828261104a565b5050565b6108f1611162565b60078054821515600160a01b0260ff60a01b199091161790556040517f6960532af3ce4f330d7d2c03bf82e6df5819eee031e0513e54d771c8938f7df09061093e90831515815260200190565b60405180910390a150565b606060048054610599906114fc565b610960611162565b6001600160a01b0381166109af5760405162461bcd60e51b8152602060048201526016602482015275436c6177436f696e3a207a65726f206164647265737360501b60448201526064016106e7565b6006546040516001600160a01b038084169216907f1e6b4634c489016040dc565435a78764af72d4885604eedf5fd066b636688cb390600090a3600680546001600160a01b0319166001600160a01b0392909216919091179055565b60003381610a198286610b02565b905083811015610a795760405162461bcd60e51b815260206004820152602560248201527f45524332303a2064656372656173656420616c6c6f77616e63652062656c6f77604482015264207a65726f60d81b60648201526084016106e7565b61064f8286868403610ba3565b60003361062a818585610d42565b606080600080600080610aa561058a565b610aad610949565b601260025461dead60009081526020527f44ad89ba62b98ff34f51403ac22759b55759460c0bb5521eb4b6ee3cff49cf8354600254610aec9190611598565b600854949b939a50919850965094509092509050565b6001600160a01b03918216600090815260016020908152604080832093909416825291909152205490565b610b35611162565b6001600160a01b038116610b9a5760405162461bcd60e51b815260206004820152602660248201527f4f776e61626c653a206e6577206f776e657220697320746865207a65726f206160448201526564647265737360d01b60648201526084016106e7565b61068681611269565b6001600160a01b038316610c055760405162461bcd60e51b8152602060048201526024808201527f45524332303a20617070726f76652066726f6d20746865207a65726f206164646044820152637265737360e01b60648201526084016106e7565b6001600160a01b038216610c665760405162461bcd60e51b815260206004820152602260248201527f45524332303a20617070726f766520746f20746865207a65726f206164647265604482015261737360f01b60648201526084016106e7565b6001600160a01b0383811660008181526001602090815260408083209487168084529482529182902085905590518481527f8c5be1e5ebec7d5bd14f71427d1e84f3dd0314c0f7b2291e5b200ac8c7c3b92591015b60405180910390a3505050565b6000610cd48484610b02565b90506000198114610d3c5781811015610d2f5760405162461bcd60e51b815260206004820152601d60248201527f45524332303a20696e73756666696369656e7420616c6c6f77616e636500000060448201526064016106e7565b610d3c8484848403610ba3565b50505050565b6001600160a01b038316610da25760405162461bcd60e51b815260206004820152602160248201527f45524332303a207472616e736665722066726f6d207a65726f206164647265736044820152607360f81b60648201526084016106e7565b6001600160a01b038216610df85760405162461bcd60e51b815260206004820152601f60248201527f45524332303a207472616e7366657220746f207a65726f20616464726573730060448201526064016106e7565b600754600090600160a01b900460ff168015610e145750600082115b8015610e2b57506001600160a01b03841661dead14155b8015610e4257506001600160a01b03831661dead14155b8015610e5c57506006546001600160a01b03858116911614155b8015610e7657506006546001600160a01b03848116911614155b8015610e9057506007546001600160a01b03858116911614155b8015610eaa57506007546001600160a01b03848116911614155b8015610ec457506005546001600160a01b03858116911614155b8015610ede57506005546001600160a01b03848116911614155b9050600081610eee576000610f06565b612710610efc60c88561155f565b610f069190611576565b90506000610f148285611598565b90506000610f21876112bb565b905084811015610f825760405162461bcd60e51b815260206004820152602660248201527f45524332303a207472616e7366657220616d6f756e7420657863656564732062604482015265616c616e636560d01b60648201526084016106e7565b610f8e878683036112fb565b610fa28683610f9c896112bb565b016112fb565b856001600160a01b0316876001600160a01b03166000805160206115ac83398151915284604051610fd591815260200190565b60405180910390a3821561104157600054610ff8610ff38583611598565b611339565b836008600082825461100a919061154c565b909155505060405184815261dead906001600160a01b038a16906000805160206115ac8339815191529060200160405180910390a3505b50505050505050565b6001600160a01b0382166110aa5760405162461bcd60e51b815260206004820152602160248201527f45524332303a206275726e2066726f6d20746865207a65726f206164647265736044820152607360f81b60648201526084016106e7565b6001600160a01b0382166000908152602081905260409020548181101561111e5760405162461bcd60e51b815260206004820152602260248201527f45524332303a206275726e20616d6f756e7420657863656564732062616c616e604482015261636560f01b60648201526084016106e7565b6001600160a01b0383166000818152602081815260408083208686039055600280548790039055518581529192916000805160206115ac8339815191529101610cbb565b6005546001600160a01b031633146108ce5760405162461bcd60e51b815260206004820181905260248201527f4f776e61626c653a2063616c6c6572206973206e6f7420746865206f776e657260448201526064016106e7565b6001600160a01b0382166112125760405162461bcd60e51b815260206004820152601f60248201527f45524332303a206d696e7420746f20746865207a65726f20616464726573730060448201526064016106e7565b8060026000828254611224919061154c565b90915550506001600160a01b038216600081815260208181526040808320805486019055518481526000805160206115ac833981519152910160405180910390a35050565b600580546001600160a01b038381166001600160a01b0319831681179093556040519116919082907f8be0079c531659141344cd1fd0a4f28419497f9722a3daafe3b4186f6b6457e090600090a35050565b604080516001600160a01b038316602082015260019181019190915260009061063090606001604051602081830303815290604052805190602001205490565b604080516001600160a01b03841660208201526001918101919091526108e59060600160405160208183030381529060405280519060200120829055565b6106866000829055565b6000815180845260005b818110156113695760208185018101518683018201520161134d565b506000602082860101526020601f19601f83011685010191505092915050565b60208152600061139c6020830184611343565b9392505050565b80356001600160a01b03811681146113ba57600080fd5b919050565b600080604083850312156113d257600080fd5b6113db836113a3565b946020939093013593505050565b6000806000606084860312156113fe57600080fd5b611407846113a3565b9250611415602085016113a3565b9150604084013590509250925092565b60006020828403121561143757600080fd5b5035919050565b6000806040838503121561145157600080fd5b61145a836113a3565b9150611468602084016113a3565b90509250929050565b60006020828403121561148357600080fd5b61139c826113a3565b60006020828403121561149e57600080fd5b8135801515811461139c57600080fd5b60c0815260006114c160c0830189611343565b82810360208401526114d38189611343565b91505060ff861660408301528460608301528360808301528260a0830152979650505050505050565b600181811c9082168061151057607f821691505b60208210810361153057634e487b7160e01b600052602260045260246000fd5b50919050565b634e487b7160e01b600052601160045260246000fd5b8082018082111561063057610630611536565b808202811582820484141761063057610630611536565b60008261159357634e487b7160e01b600052601260045260246000fd5b500490565b818103818111156106305761063061153656feddf252ad1be2c89b69c2b068fc378daa952ba7f163c4a11628f55a4df523b3efa2646970667358221220d2ece7d68295bb93fb4c6950fde3fabbd864565f638c757a597ab6f155a871ef64736f6c63430008140033",
  "linkReferences": {},
  "deployedLinkReferences": {}
}